:10040200AE071FEE600A7E027DEFDDFEDEFC80F0AD
:0104120022C7
:06041300C2A58F80D2A7F4
:080419007F027EEFDEFEDFFC36
:0104210022B8
:0A042E00C2A6120413C2A7020419AB
:10039D00CFCDCFCECCCE1201897C007D0A12018942
:0403AD00ED2430FF0C
:0A03B100D2A6120413C2A702041919
:1003D800AE07BE0104ED148006BE0209ED243F44B9
:0603E80080FF12042E222A
:1003EE007F3812042E7F0C12042E7F0612042E7FED
:0403FE000102042EC6
:0A043800AC031203D8AF040203B1B5
:06037A008B0A8A0B890CBE
:100380001203D8E4FDAB0AAA0BA90C8D8275830079
:0C03900012014AFF60061203B10D80E963
:01039C00223E
:0C0315007F0AEA24FFFDE434FFFC7E00B8
:080321008E0F8F108C118D125C
:100329007F017E00E4FBEBC39512E5116480F8744C
:0E0339008098500AAC0FAD101201770B80E8CF
:010347002293
:0403BB008A0C8B0D10
:1003BF001203D8AA0EEAD39400400D120315AC0C09
:0803CF00AD0D12039D1A80ED33
:0103D7002203
:10026A001203D8C3EA64809480400B7F2B1203B137
:10027A008A188B19800E7F2D1203B1C3E49BF519DE
:10028A00E49AF518AA17EAD39400400D120315ACA4
:09029A0018AD1912039D1A80ED44
:0102A3002238
:0402A4008A1C8B1D08
:1002A8001203D8AA1EEAD3940040297F101203171C
:1002B800AC1CAD1DCFCDCFCECCCE120189EF540FE3
:1002C800FEC3940AEE5004243080022437FF120340
:0402D800B11A80D106
:0102DC0022FF
:0402DD008A218B22C5
:1002E1001203D8AA23EAD394004028EA24FFFDE4AC
:1002F10034FFFC7F027E00120321AC21AD22CFCD61
:10030100CFCECCCE120189EF54012430FF1203B1BC
:030311001A80D27D
:0103140022C6
:0C04220048656C6C6F20576F726C6400B2
:100348001203EE7BFF7A0479227D017F0112037A82
:100358001200037508008F097F14120402750E023B
:10036800AB09AA087D017F021203BB7F14120402A5
:0203780080DE25
:0304420001240092
:100003007590FFC2932097107F141204023097FD5E
:100013007F141204027524012096107F1412040227
:100023003096FD7F141204027524052095107F1469
:100033001204023095FD7F141204027524092094E2
:10004300107F141204023094FD7F141204027524ED
:100053000D7590FFC2922097107F141204023097FF
:10006300FD7F141204027524022096107F141204DB
:10007300023096FD7F141204027524062095107F2A
:10008300141204023095FD7F1412040275240A2011
:1000930094107F141204023094FD7F14120402752D
:1000A300240E7590FFC2912097107F141204023022
:1000B30097FD7F141204027524032096107F1412F7
:1000C30004023096FD7F1412040275240720951054
:1000D3007F141204023095FD7F1412040275240B61
:1000E3002094107F141204023094FD7F1412040232
:1000F30075240F7590FFC2902097107F141204028D
:100103003097FD7F141204027524042096107F1487
:100113001204023096FD7F14120402752408209500
:10012300107F141204023095FD7F1412040275240B
:100133000C2094107F141204023094FD7F141204D7
:0701430002752410AF242215
:030000000201DE1C
:0C01DE00787FE4F6D8FD7581240202252C
:10014A00BB010CE58229F582E5833AF583E022506A
:10015A0006E92582F8E622BBFE06E92582F8E222B4
:0D016A00E58229F582E5833AF583E49322CE
:10017700EF8DF0A4A8F0CF8CF0A428CE8DF0A42E9C
:02018700FE2256
:10018900BC000BBE0029EF8DF084FFADF022E4CC5A
:10019900F875F008EF2FFFEE33FEEC33FCEE9DEC23
:1001A900984005FCEE9DFE0FD5F0E9E4CEFD22ED69
:1001B900F8F5F0EE8420D21CFEADF075F008EF2FB3
:1001C900FFED33FD4007985006D5F0F222C398FDA4
:0501D9000FD5F0EA2241
:1001EA00020348E493A3F8E493A34003F68001F2E0
:1001FA0008DFF48029E493A3F85407240CC8C33316
:10020A00C4540F4420C8834004F456800146F6DFE4
:10021A00E4800B0102040810204080900442E47E2E
:10022A00019360BCA3FF543F30E509541FFEE493D9
:10023A00A360010ECF54C025E060A840B8E493A3A0
:10024A00FAE493A3F8E493A3C8C582C8CAC583CACB
:10025A00F0A3C8C582C8CAC583CADFE9DEE780BE83
:0104450000B6
:00000001FF
