:0C01B8000A0C3F065B4F666D7D077F6FF1
:04019F007F147E004B
:1001A300EF1FAC0670011E4C600A7D027CEFDCFE83
:0401B300DDFC80EC03
:0101B7002225
:10013900EE705BEF14B40800505490015175F00350
:10014900A4C58325F0C5837302016902016D02010B
:10015900710201750201790201810201890201918D
:10016900D2A4800ED2A48012D2A48016D2A4801A5E
:10017900C2A4D2A3D2A28016C2A4D2A3C2A2800EC4
:10018900C2A4C2A3D2A28006C2A4C2A3C2A2740CF2
:060199002DF8E6F58022BE
:100003007D027C007F047E00120139AD09AC08AF8C
:100013000BAE0A12013920B11F12019F30B1FD123C
:10002300019F050BE50B7002050AD39408E50A94BA
:10003300004005E4F50AF50B20B02212019F30B011
:10004300FD12019FE50B150B7002150AD3E50B9406
:1000530000E50A94005006750A00750B0820B21FCC
:1000630012019F30B2FD12019F0509E509700205D7
:1000730008D39409E50894004005E4F508F5092040
:10008300B38912019F30B3FD12019FE50915097071
:10009300021508D3E5099400E50894004003020023
:0A00A3000E75080075090902000E31
:030000000200AD4E
:0C00AD00787FE4F6D8FD7581150200F4A0
:1000B900020003E493A3F8E493A34003F68001F25A
:1000C90008DFF48029E493A3F85407240CC8C33348
:1000D900C4540F4420C8834004F456800146F6DF17
:1000E900E4800B01020408102040809001B8E47EEE
:1000F900019360BCA3FF543F30E509541FFEE4930C
:10010900A360010ECF54C025E060A840B8E493A3D2
:10011900FAE493A3F8E493A3C8C582C8CAC583CAFD
:10012900F0A3C8C582C8CAC583CADFE9DEE780BEB5
:0101C400003A
:00000001FF
