:0C01BD000A0C3F065B4F666D7D077F6FEC
:0401A4007F147E0046
:1001A800EF1FAC0670011E4C600A7D027CEFDCFE7E
:0401B800DDFC80ECFE
:0101BC002220
:10013E00EE705BEF14B40800505490015675F00346
:10014E00A4C58325F0C5837302016E0201720201FC
:10015E007602017A02017E02018602018E0201966A
:10016E00D2A4800ED2A48012D2A48016D2A4801A59
:10017E00C2A4D2A3D2A28016C2A4D2A3C2A2800EBF
:10018E00C2A4C2A3D2A28006C2A4C2A3C2A2740CED
:06019E002DF8E6F58022B9
:100003007D027C007F047E0012013EAD09AC08AF87
:100013000BAE0A12013E20B1221201A430B1FD122F
:1000230001A4050BE50B7002050AD39408E50A64E5
:100033008094804006750A00750B0120B0241201DC
:10004300A430B0FD1201A4E50B150B7002150AC311
:10005300E50B9401E50A648094805006750A0075E7
:100063000B0820B2211201A430B2FD1201A405092C
:10007300E50970020508D39409E50864809480407B
:1000830005E4F508F50920B3821201A430B3FD128B
:1000930001A4E509150970021508C3E508648094F5
:0F00A30080400302000E75080075090902000E67
:030000000200B249
:0C00B200787FE4F6D8FD7581150200F996
:1000BE00020003E493A3F8E493A34003F68001F255
:1000CE0008DFF48029E493A3F85407240CC8C33343
:1000DE00C4540F4420C8834004F456800146F6DF12
:1000EE00E4800B01020408102040809001BDE47EE4
:1000FE00019360BCA3FF543F30E509541FFEE49307
:10010E00A360010ECF54C025E060A840B8E493A3CD
:10011E00FAE493A3F8E493A3C8C582C8CAC583CAF8
:10012E00F0A3C8C582C8CAC583CADFE9DEE780BEB0
:0101C9000035
:00000001FF
